S0170000456E65726779206D657465722052782E737265637C
S11300000C942A000C9447000C9447000C9447006D
S11300100C9447000C9447000C9447000C94470040
S11300200C9447000C9447000C9447000C94470030
S11300300C9447000C9447000C9447000C94470020
S11300400C9447000C9447000C9447000C94470010
S11300500C94470011241FBECFE5D4E0DEBFCDBF12
S113006011E0A0E6B0E0E6E8F8E002C005900D92E9
S1130070AA35B107D9F721E0AAE5B1E001C01D9284
S1130080AD35B207E1F70E943A030C9441040C9495
S1130090000010925B01009779F041E001C0452F08
S11300A0542F5F5F242F30E028173907C0F38AE00C
S11300B080935C0140935B01089584E690E00E9484
S11300C04900AA9A84E690E00E944900AA980895FB
S11300D0CF93C82FAA9885B39C2F907F8870892BC3
S11300E085BB0E945D0085B3C295C07F8870C82B14
S11300F0C5BB0E945D00CF910895FF920F931F939B
S1130100CF93DF938C01AA98FC018081811108C0F0
S113011023C0F0E1FF1206C080EC0E94680002C018
S1130120E801F12C85B39881907F8870892B85BB79
S1130130A89A0E945D0085B398819295907F8870FB
S1130140892B85BBA89A0E945D00F394E801CF0D2A
S1130150D11D88818111DDCFDF91CF911F910F9146
S1130160FF90089580580E946800089580540E946A
S1130170680008954CEC5CE005C09A010000215031
S11301803109E1F70197C8F7089585B380935A01BF
S11301908FEF84BB8FE090E00E94BA0083E00E945E
S11301A068008DE290E00E94BA0082E00E9468003C
S11301B08FE090E00E94BA00AA9881E00E94680053
S11301C08FE00E94680082E00E94680080E80E943C
S11301D068008FE090E00E94BA00089587B38F70A2
S11301E087BB87B3806B87BB81E58DB981E08EB90E
S11301F008958FB9779BFECF8FB10895C1988F7101
S11302000E94F9008FEF0E94F900C19A0895CF93DC
S1130210C62FC1988F7180620E94F9008C2F0E94B2
S1130220F900C19ACF910895FF920F931F93CF9332
S1130230DF93062F172FF42EC1988F7180620E94CE
S1130240F900FF2071F0C02FD12F8E010F5F1F4FD7
S1130250FA940F0D111D89910E94F900C017D1075E
S1130260D1F7C19ADF91CF911F910F91FF9008951B
S113027020E030E00496FB01E20FF31FDC01A21B37
S1130280B30B4C9140832F5F3F4F2530310599F7D5
S11302900895CF93DF9300D000D01F92CDB7DEB77F
S11302A09B01811116C085E0FB01A0E6B0E001903E
S11302B00D928A95E1F7BE016F5F7F4FC9010E94DD
S11302C0380145E0BE016F5F7F4F8AE00E94140150
S11302D056C08130B1F485E0FB01A5E6B0E00190A1
S11302E00D928A95E1F7BE016F5F7F4FC9010E94AD
S11302F0380145E0BE016F5F7F4F8BE00E9414011F
S11303003EC0823071F485E0FB01AAE6B0E00190C2
S11303100D928A95E1F7FB0164818CE00E9407014C
S11303202EC0833071F485E0FB01AFE6B0E00190AC
S11303300D928A95E1F7FB0164818DE00E9407012B
S11303401EC0843071F485E0FB01A4E7B0E00190A5
S11303500D928A95E1F7FB0164818EE00E9407010A
S11303600EC0853061F4FB01A9E7B0E001900D9265
S11303708A95E1F7FB0164818FE00E9407010F90E9
S11303800F900F900F900F90DF91CF910895CF931E
S1130390DF9300D000D01F92CDB7DEB725E0FC017B
S11303A0AEE7B0E001900D922A95E1F7BE016F5FD0
S11303B07F4F0E94380145E0BE016F5F7F4F8AE0A6
S11303C00E94140145E0BE016F5F7F4F80E10E94EF
S11303D014010F900F900F900F900F90DF91CF9119
S11303E00895C19882EE0E94F900C19A0895C198B7
S11303F081EE0E94F900C19A089560E670E080E001
S11304000E94490180E00E94FE00682F616080E044
S11304100E94070180E00E94FE00682F626080E075
S11304200E94070160E787E00E9407010E94F10132
S11304300E94F701C09A87E592E00197F1F700C0A6
S113044000000895C1988FEF0E94F900C19A0895A1
S1130450CF93DF93EC010E942202982F907486FFC1
S113046005C0209719F0869587708883892FDF91BE
S1130470CF9108950F931F93CF93DF93082F192FD4
S1130480C19881E60E94F900C02FD12F10E08FEFB0
S11304900E94F90089931F5F1031C9F7C19A60E483
S11304A087E00E9407010E94220285FF04C060E2E7
S11304B087E00E940701DF91CF911F910F9108956A
S11304C086E00E94FE00682F666086E00E940701B5
S11304D0089586E00E94FE00682F677D86E00E94F2
S11304E00701089580E00E94FE00682F6C6080E0A0
S11304F00E9407010895B99AB89A0E94EE00C09824
S1130500C19A8FE19EE40197F1F700C000000E94B8
S113051060020E9469020E94720267E484E00E9401
S1130520070160E08CE10E9407016CE485E00E9411
S1130530070160E181E10E94070160E182E10E941C
S1130540070160E183E10E94070160E184E10E9408
S1130550070160E185E10E94070160E186E10E94F4
S1130560070160E082E00E94070182E00E94FE0031
S1130570682F616082E00E94070182E00E94FE0011
S1130580682F626082E00E94070182E00E94FE0000
S1130590682F646082E00E94070182E00E94FE00EE
S11305A0682F686082E00E94070182E00E94FE00DA
S11305B0682F606182E00E94070182E00E94FE00D1
S11305C0682F606282E00E94070181E00E94FE00C1
S11305D0682F616081E00E94070181E00E94FE00B3
S11305E0682F626081E00E94070181E00E94FE00A2
S11305F0682F646081E00E94070181E00E94FE0090
S1130600682F686081E00E94070181E00E94FE007B
S1130610682F606181E00E94070181E00E94FE0072
S1130620682F606281E00E94070160E670E080E06C
S11306300E94490165E670E081E00E9449016AE692
S113064070E082E00E9449016FE670E083E00E945E
S1130650490164E770E084E00E94490169E770E0C1
S113066085E00E9449018EE790E00E94C7010E9444
S1130670FD010895CF93DF93CDB7DEB761970FB631
S1130680F894DEBF0FBECDBF8FEF81BB12BA0E94BC
S1130690C5000E947B027894A12CB12CC12CD12CD2
S11306A0E12CF12C8E010F5E1F4F99249A94198A24
S11306B0C8010E942802882309F4B3C0CE01019620
S11306C00E943A028989811114C00E94C50080E009
S11306D00E94B2008AEF90E00E947D0080E00E94B8
S11306E0B600CE0101960E947D008AE091E00E944E
S11306F07D0089898130C9F40E94C50080E00E9490
S1130700B20080E191E00E947D0080E00E94B6008A
S1130710CE0101960E947D008DE191E00E947D0052
S1130720CE0101960E941B047C0189898230A1F4C8
S11307300E94C50080E00E94B20080E291E00E9425
S11307407D0080E00E94B600CE0101960E947D00EB
S11307508AE091E00E947D0089898330C9F40E9477
S1130760C50080E00E94B20080E391E00E947D0019
S113077080E00E94B600CE0101960E947D008DE1CA
S113078091E00E947D00CE0101960E941B046C0141
S113079089898430A1F40E94C50080E00E94B200DF
S11307A08DE391E00E947D0080E00E94B600CE01BE
S11307B001960E947D008AE091E00E947D00898973
S11307C08530C9F40E94C50080E00E94B2008DE427
S11307D091E00E947D0080E00E94B600CE01019667
S11307E00E947D008DE191E00E947D00CE01019682
S11307F00E941B045C01FE0131961192E017F1077F
S1130800E1F729E7E21625E0F20654F489E7C81671
S113081085E0D8062CF499E7A91695E0B9060CF002
S113082092BA2FEF8DE399E4215080409040E1F794
S113083000C000003CCFFC0188279927E89421914F
S11308402032E9F3293010F02E30C8F32B3241F076
S11308502D3239F4689404C00E943904820F911D2A
S1130860219120532A30C0F31EF4909581959F4F17
S113087008957AE0979F902D879F802D910D1124E4
S10908800895F894FFCF77
S1130886E8E8F0F0E2C1C2C2C2C2C1C2C2C2C3C178
S1130896C2C2C2C4C1C2C2C2C5C1C2C2C2C6E8E8DB
S11308A6F0F0E2696E666F0D0A00535441545553D5
S11308B63A20253032580D0A00434F4E4649473AEE
S11308C620253032580D0A0052465F43483A202507
S11308D63032580D0A0052465F53455455503A205B
S11308E6253032580D0A00454E5F41413A202530E5
S11308F632580D0A00454E5F5258414444523A203C
S1130906253032580D0A004F4253455256455F541E
S1130916583A20253032580D0A004D657465722008
S1130926312052656164696E6700204B5768720016
S11309364D657465722031204C6F61640020570048
S11309464D6574657220322052656164696E670074
S11309564D657465722032204C6F6164004D657478
S1130966657220332052656164696E67004D657453
S10D097665722033204C6F616400A9
S9030000FC
