S0180000456E65726779204D65746572204949492E737265638A
S11300000C94A7000C944D060C94B0050C94C400F9
S11300100C94C4000C94C4000C94D5030C94C40038
S11300200C94C4000C94C4000C94C4000C94C4003C
S11300300C94C4000C94C4000C94C4000C94C4002C
S11300400C94C4000C94C4000C9413050C94C400C8
S11300500C94C40000407A10F35A00A0724E1809A0
S11300600010A5D4E80000E87648170000E40B541B
S1130070020000CA9A3B000000E1F50500008096EA
S11300809800000040420F000000A086010000001C
S1130090102700000000E8030000000064000000D6
S11300A000000A00000000000100000000002C769F
S11300B0D888DC674F0823DFC1DFAE59E1B1B796BA
S11300C0E5E3E453C63AE651997696E8E6C2842617
S11300D0EB898C9B62ED407C6FFCEFBC9C9F40F2F3
S11300E0BAA56FA5F490055A2AF75C936B6CF9676F
S11300F06DC11BFCE0E40D47FEF520E6B500D0ED34
S1130100902E0300943577050080841E080000209B
S11301104E0A000000C80C333333330F986E128339
S11301201141EF8D2114893BE65516CFFEE6DB180D
S1130130D1844B381BF77C1D901DA4BBE4242032D2
S113014084725E228100C9F124ECA1E53D271124CB
S11301501FBECFE5D4E0DEBFCDBF11E0A0E6B0E026
S1130160ECE8F9E102C005900D92A234B107D9F789
S113017021E0A2E4B1E001C01D92A93CB207E1F77D
S11301800E94EA060C94C40C0C94000010924301E3
S1130190009779F041E001C0452F542F5F5F242F71
S11301A030E028173907C0F38AE080934401409374
S11301B04301089584E690E00E94C600AA9A84E66A
S11301C090E00E94C600AA980895CF93C82FAA98D9
S11301D085B39C2F907F8870892B85BB0E94DA00A1
S11301E085B3C295C07F8870C82BC5BB0E94DA0056
S11301F0CF910895FF920F931F93CF93DF938C01B8
S1130200AA98FC018081811108C023C0F0E1FF128B
S113021006C080EC0E94E50002C0E801F12C85B321
S11302209881907F8870892B85BBA89A0E94DA00F8
S113023085B398819295907F8870892B85BBA89A05
S11302400E94DA00F394E801CF0DD11D8881811159
S1130250DDCFDF91CF911F910F91FF9008958058CA
S11302600E94E50008954CEC5CE005C09A01000092
S113027021503109E1F70197C8F7089585B38093B8
S113028042018FEF84BB8FE090E00E94330183E052
S11302900E94E5008DE290E00E94330182E00E941A
S11302A0E5008FE090E00E943301AA9881E00E946B
S11302B0E5008FE00E94E50082E00E94E50080E80E
S11302C00E94E5008FE090E00E943301089587B317
S11302D08F7087BB87B3806B87BB81E58DB981E065
S11302E08EB908958FB9779BFECF8FB10895C198C9
S11302F08F710E9472018FEF0E947201C19A08955A
S1130300CF93C62FC1988F7180620E9472018C2F87
S11303100E947201C19ACF910895FF920F931F9387
S1130320CF93DF93062F172FF42EC1988F7180621D
S11303300E947201FF2071F0C02FD12F8E010F5F38
S11303401F4FFA940F0D111D89910E947201C0175D
S1130350D107D1F7C19ADF91CF911F910F91FF90EF
S1130360089520E030E00496FB01E20FF31FDC0166
S1130370A21BB30B4C9140832F5F3F4F25303105B7
S113038099F70895CF93DF9300D000D01F92CDB793
S1130390DEB79B01811116C085E0FB01A0E6B0E049
S11303A001900D928A95E1F7BE016F5F7F4FC901FD
S11303B00E94B10145E0BE016F5F7F4F8AE00E9459
S11303C08D0156C08130B1F485E0FB01A5E6B0E0B3
S11303D001900D928A95E1F7BE016F5F7F4FC901CD
S11303E00E94B10145E0BE016F5F7F4F8BE00E9428
S11303F08D013EC0823071F485E0FB01AAE6B0E0D5
S113040001900D928A95E1F7FB0164818CE00E94D2
S113041080012EC0833071F485E0FB01AFE6B0E0CB
S113042001900D928A95E1F7FB0164818DE00E94B1
S113043080011EC0843071F485E0FB01A4E7B0E0C4
S113044001900D928A95E1F7FB0164818EE00E9490
S113045080010EC0853061F4FB01A9E7B0E0019092
S11304600D928A95E1F7FB0164818FE00E9480017F
S11304700F900F900F900F900F90DF91CF910895F0
S1130480CF93DF9300D000D01F92CDB7DEB725E025
S1130490FC01AEE7B0E001900D922A95E1F7BE01B0
S11304A06F5F7F4F0E94B10145E0BE016F5F7F4FD8
S11304B08AE00E948D0145E0BE016F5F7F4F80E1BD
S11304C00E948D010F900F900F900F900F90DF916D
S11304D0CF910895C19882EE0E947201C19A089545
S11304E0C19881EE0E947201C19A089560E670E09D
S11304F080E00E94C20180E00E947701682F616061
S113050080E00E94800180E00E947701682F626091
S113051080E00E94800160E787E00E9480010E94E1
S11305206A020E947002C09A87E592E00197F1F78F
S113053000C000000895C09880E00E947701682FF1
S11305406E7F80E00E94800180E00E947701682F26
S1130550626080E00E94800160E787E00E94800181
S11305600E94700287E592E00197F1F700C0000055
S11305700895C1988FEF0E947201C19A089586E090
S11305800E947701682F666086E00E9480010895CA
S113059086E00E947701682F677D86E00E948001D3
S11305A0089580E00E947701682F6C6080E00E94CB
S11305B080010895B99AB89A0E946701C098C19AB7
S11305C08FE19EE40197F1F700C000000E94BF0292
S11305D00E94C8020E94D10267E484E00E94800164
S11305E060E08CE10E9480016CE485E00E9480015F
S11305F060E181E10E94800160E182E10E9480016A
S113060060E183E10E94800160E184E10E94800155
S113061060E185E10E94800160E186E10E94800141
S113062060E082E00E94800182E00E947701682FEE
S1130630616082E00E94800182E00E947701682F5D
S1130640626082E00E94800182E00E947701682F4C
S1130650646082E00E94800182E00E947701682F3A
S1130660686082E00E94800182E00E947701682F26
S1130670606182E00E94800182E00E947701682F1D
S1130680606282E00E94800181E00E947701682F0D
S1130690616081E00E94800181E00E947701682FFF
S11306A0626081E00E94800181E00E947701682FEE
S11306B0646081E00E94800181E00E947701682FDC
S11306C0686081E00E94800181E00E947701682FC8
S11306D0606181E00E94800181E00E947701682FBF
S11306E0606281E00E94800160E670E080E00E9428
S11306F0C20165E670E081E00E94C2016AE670E032
S113070082E00E94C2016FE670E083E00E94C201B1
S113071064E770E084E00E94C20169E770E085E06C
S11307200E94C2018EE790E00E9440020E9476027D
S113073008950F931F93CF93DF93082F192F0E94CF
S11307409B02C19880EA0E947201C02FD12F10E051
S113075089910E9472011F5F1031D1F7C19AC09A2A
S113076080E58A95F1F7C09885E38A95F1F7000052
S11307700E94B9028073C1F30E94B902C82F6CE4CD
S113078085E00E94800180E00E947701682F6D7FE0
S113079080E00E9480010E947602C5FB882780F9D0
S11307A0DF91CF911F910F9108951F920F920FB671
S11307B00F9211242F938F939F938091770190919F
S11307C07801019690937801809377018091770165
S11307D090917801883E934069F4109278011092C8
S11307E077018091970190919801019690939801D7
S11307F0809397018091970190919801CC9769F427
S113080010929801109297018091B6019091B701CE
S113081001969093B7018093B6018091B6019091AF
S1130820B701CC9769F41092B7011092B601809188
S1130830BA019091BB0101969093BB018093BA01D8
S11308408091BA019091BB01489724F01092BB01AA
S11308501092BA019F918F912F910F900FBE0F901C
S11308601F901895F89488E090E00E942C0A462F77
S1130870572F682F792F4093450150934601609379
S113088047017093480184E090E00E942C0A462FAF
S1130890572F682F792F40938401509385016093DB
S11308A086017093870180E090E00E942C0A462F15
S11308B0572F682F792F4093610150936201609301
S11308C06301709364011092780110927701109281
S11308D09801109297011092B7011092B6011092EC
S11308E0BB011092BA011092BC01109279011092CE
S11308F092018BE08EBD8AEF90E09BBD8ABD80E1C2
S113090089BF80EE8BBF8FE085BF80E484BF78947D
S113091008950F931F93F894009145011091460197
S113092020914701309148017894602F712F822FD4
S1130930932F1F910F9108950F931F93F894009193
S1130940840110918501209186013091870178946A
S1130950602F712F822F932F1F910F9108950F9362
S11309601F93F89400916101109162012091630139
S1130970309164017894602F712F822F932F1F91EF
S11309800F9108958F929F92AF92BF92CF92DF9270
S1130990EF92FF920F931F93F894609197017091D7
S11309A098018091770190917801A091B601B0915E
S11309B0B7014091BA015091BB01789428EE33E01D
S11309C0629F4001639F900C729F900C1124880ECB
S11309D0991EAA2497FCA094BA2C20E63AEE0E9411
S11309E08F0975016401C60ED71EE81EF91EDA01CF
S11309F020E83EEE46E350E00E9496099701860106
S1130A00060F171F281F391F602F712F822F932F56
S1130A101F910F91FF90EF90DF90CF90BF90AF9018
S1130A209F908F9008951F920F920FB60F921124EA
S1130A302F933F934F935F936F937F938F939F93E2
S1130A40AF93BF93EF93FF93809161019091620103
S1130A50A0916301B09164010196A11DB11D809321
S1130A60610190936201A0936301B093640140918A
S1130A70610150916201609163017091640180E0B1
S1130A8090E00E94320A8091920181110EC00E946E
S1130A90C204462F572F682F792F4093B2015093E9
S1130AA0B3016093B4017093B501809192018F3FBB
S1130AB009F040C00E94C204462F572F682F792F97
S1130AC04093990150939A0160939B0170939C0108
S1130AD04091990150919A0160919B0170919C0100
S1130AE08091B2019091B301A091B401B091B5018C
S1130AF0481B590B5093C8014093C7012091C7016B
S1130B003091C80140E050E068E87AE281E190E089
S1130B100E9473093093B9012093B8016091B80120
S1130B207091B90180E090E02AE030E048E851E0BB
S1130B300E94F80980919201809580939201FF911F
S1130B40EF91BF91AF919F918F917F916F915F9141
S1130B504F913F912F910F900FBE0F901F901895BA
S1130B601F920F920FB60F9211242F933F934F931E
S1130B705F936F937F938F939F93AF93BF93EF9301
S1130B80FF938091840190918501A0918601B09199
S1130B9087010196A11DB11D809384019093850165
S1130BA0A0938601B09387014091840150918501FF
S1130BB0609186017091870184E090E00E94320A7E
S1130BC08091790181110EC00E94C204462F572FD3
S1130BD0682F792F4093570150935801609359011E
S1130BE070935A01809179018F3F09F040C00E94AF
S1130BF0C204462F572F682F792F40937C015093BE
S1130C007D0160937E0170937F0140917C0150913E
S1130C107D0160917E0170917F01809157019091D7
S1130C205801A0915901B0915A01481B590B509396
S1130C30660140936501209165013091660140E0B1
S1130C4050E068E87AE281E190E00E947309309311
S1130C507B0120937A0160917A0170917B0180E09D
S1130C6090E02AE030E04DE451E00E94F8098091E0
S1130C707901809580937901FF91EF91BF91AF91B4
S1130C809F918F917F916F915F914F913F912F91A0
S1130C900F900FBE0F901F9018951F920F920FB6D2
S1130CA00F9211242F933F934F935F936F937F93EE
S1130CB08F939F93AF93BF93EF93FF9380914501DD
S1130CC090914601A0914701B09148010196A11D60
S1130CD0B11D8093450190934601A0934701B093C1
S1130CE0480140914501509146016091470170913E
S1130CF0480188E090E00E94320A8091BC01811191
S1130D000EC00E94C204462F572F682F792F40939C
S1130D1080015093810160938201709383018091DB
S1130D20BC018F3F09F040C00E94C204462F572FD8
S1130D30682F792F40935D0150935E0160935F01AA
S1130D407093600140915D0150915E0160915F017B
S1130D50709160018091800190918101A091820144
S1130D60B0918301481B590B50936801409367016C
S1130D70209167013091680140E050E068E87AE230
S1130D8081E190E00E94730930935C0120935B0140
S1130D9060915B0170915C0180E090E02AE030E0BA
S1130DA048EA51E00E94F8098091BC018095809343
S1130DB0BC01FF91EF91BF91AF919F918F917F9172
S1130DC06F915F914F913F912F910F900FBE0F90B4
S1130DD01F901895CF93DF93CDB7DEB76E970FB6FC
S1130DE0F894DEBF0FBECDBF8FEF84BB0E943204E8
S1130DF00E943E010E94DA02789485E0E3E8F0E084
S1130E00DE01119601900D928A95E1F785E0E8E8FC
S1130E10F0E0DE01169601900D928A95E1F785E0E7
S1130E20EDE8F0E0DE011B9601900D928A95E1F762
S1130E3085E0E2E9F0E0DE01509601900D928A959A
S1130E40E1F785E0E7E9F0E0DE01559601900D92C7
S1130E508A95E1F785E0ECE9F0E0DE015A9601902D
S1130E600D928A95E1F733243A94F8940E94890408
S1130E704B015C010E949C046B017C010E94AF0445
S1130E802B013C01C501B4010E9484082AE037ED1E
S1130E9043EA59E30E94BF080DE911E023E048E06A
S1130EA00E94D709C701B6010E9484082AE037EDE1
S1130EB043EA59E30E94BF0809E611E023E048E051
S1130EC00E94D709C301B2010E9484082AE037EDC9
S1130ED043EA59E30E94BF080DEB11E023E048E028
S1130EE00E94D7097894CE0101960E9440028DE9B0
S1130EF091E00E9499038093A70180E00E942F0152
S1130F0088E191E00E94FA002FEF8DE399E42150EB
S1130F1080409040E1F700C00000CE0106960E9498
S1130F20400288EA91E00E9499038093A70180E03F
S1130F300E942F018FE191E00E94FA002FEF8DE3D0
S1130F4099E4215080409040E1F700C00000CE01B8
S1130F500B960E94400289E691E00E9499038093D7
S1130F60A70180E00E942F0186E291E00E94FA002E
S1130F702FEF8DE399E4215080409040E1F700C0C9
S1130F800000CE0140960E9440028DE491E00E9450
S1130F9099038093A70180E00E942F018DE291E0E4
S1130FA00E94FA002FEF8DE399E421508040904095
S1130FB0E1F700C00000CE0145960E944002C8013E
S1130FC00E9499038093A70180E00E942F0184E38B
S1130FD091E00E94FA002FEF8DE399E421508040C4
S1130FE09040E1F700C00000CE014A960E94400202
S1130FF088E891E00E9499038093A70180E00E9411
S11310002F018BE391E00E94FA002FEF8DE399E426
S1131010215080409040E1F700C000003092BC01B4
S11310200E94C204462F572F682F792F40939301B3
S1131030509394016093950170939601809180017F
S113104090918101A0918201B09183018417950749
S1131050A607B70748F42AE030E048EA51E060E028
S113106070E0CB010E94F809309279010E94C20419
S1131070462F572F682F792F409373015093740193
S11310806093750170937601809157019091580196
S1131090A0915901B0915A0184179507A607B70783
S11310A048F42AE030E04DE451E060E070E0CB0128
S11310B00E94F809309292010E94C204462F572FD1
S11310C0682F792F4093490150934A0160934B0153
S11310D070934C018091B2019091B301A091B4013D
S11310E0B091B50184179507A607B70708F0BDCEE0
S11310F02AE030E048E851E060E070E0CB010E9473
S1131100F809B3CEE89409C097FB3EF49095809516
S1131110709561957F4F8F4F9F4F9923A9F0F92FB9
S113112096E9BB279395F695879577956795B79537
S1131130F111F8CFFAF4BB0F11F460FF1BC06F5F1D
S11311407F4F8F4F9F4F16C0882311F096E911C02F
S1131150772321F09EE8872F762F05C0662371F050
S113116096E8862F70E060E02AF09A95660F771F64
S1131170881FDAF7880F9695879597F908950BD00D
S113118078C069D028F06ED018F0952309F05AC0C1
S11311905FC01124A2C07ED0A0F3959FD1F3950F18
S11311A050E0551F629FF001729FBB27F00DB11DE7
S11311B0639FAA27F00DB11DAA1F649F6627B00D77
S11311C0A11D661F829F2227B00DA11D621F739F60
S11311D0B00DA11D621F839FA00D611D221F749F6E
S11311E03327A00D611D231F849F600D211D822FB5
S11311F0762F6A2F11249F5750408AF0E1F08823FC
S11312004AF0EE0FFF1FBB1F661F771F881F915008
S11312105040A9F79E3F510570F014C05EC05F3F77
S1131220ECF3983EDCF3869577956795B795F7953B
S1131230E7959F5FC1F7FE2B880F911D96958795C3
S113124097F9089597F99F6780E870E060E0089542
S11312509FEF80EC089500240A94161617061806CA
S11312600906089500240A941216130614060506A6
S11312700895092E0394000C11F4882352F0BB0F37
S113128040F4BF2B11F460FF04C06F5F7F4F8F4F9A
S11312909F4F089557FD9058440F551F59F05F3FD5
S11312A071F04795880F97FB991F61F09F3F79F084
S11312B087950895121613061406551FF2CF469506
S11312C0F1DF08C0161617061806991FF1CF869588
S11312D07105610508940895E894BB27662777276C
S11312E0CB0197F90895052E97FB16F4009407D0C7
S11312F057FD0DD00E949E0907FC09D07EF49095FD
S11313008095709561957F4F8F4F9F4F08955095AD
S11313104095309521953F4F4F4F5F4F08950E9460
S1131320C009B7FF0895821B930B0895B7FF0C946F
S1131330CC090E94CC09821B930B0895A1E21A2EBA
S1131340AA1BBB1BFD010DC0AA1FBB1FEE1FFF1F65
S1131350A217B307E407F50720F0A21BB30BE40BB5
S1131360F50B661F771F881F991F1A9469F76095FC
S11313707095809590959B01AC01BD01CF010895B6
S1131380A29FB001B39FC001A39F01D0B29F700D73
S1131390811D1124911D08950E94C009A59F900DDF
S11313A0B49F900DA49F800D911D11240895EF9278
S11313B00F931F93CF93C02F47FF02C034E101C0A6
S11313C034E0E42FFF27E7FDF095F7FF03C0F19524
S11313D0E195F109E32E022F2E2F4C2F512F0E945D
S11313E03E0A8C2F912FCF911F910F91EF9008956A
S11313F0FA01CF93FF93EF93223044F1253234F571
S1131400C22FE894CA3049F497FB3EF49095809536
S1131410709561957F4F8F4F9F4F2C2F3327442713
S11314205527FF93EF930E949E09EF91FF91605D12
S11314306A330CF0695D6193B901CA016050704070
S11314408040904051F716F4CDE2C19310828F9101
S11314509F91CF910C94930CA6E1B0E044E050E04E
S11314600C94A50C0396272F0E94B40C0E94B30C75
S1131470252F0E94B40C242F0C94B40C6F927F92ED
S11314809F92AF92BF92CF92DF92EF92FF920F930F
S11314901F93CF93DF93CDB7DEB729970FB6F89498
S11314A0DEBF0FBECDBF6A01B22E102F0C3318F46D
S11314B0F02EF39402C05CE3F52E0F2D27E0AE016D
S11314C04F5F5F4F0E94BB0B7981272F297021301A
S11314D031F0E1FC06C0E0FE06C060E205C06DE24A
S11314E003C06BE201C060E073FF3DC0662311F0EE
S11314F084E001C083E08B1510F4B81A01C0B12C4C
S1131500E4FC0BC08B2DF60190E202C09193815054
S11315108111FCCFCB0CD11CB12C662319F0D60160
S11315206D936D01E2FE0AC08EE4F601808391E4BE
S113153091838283F3E0CF0ED11C0CC08EE6D601DA
S11315408C9391E611969C93119712968C93B3E029
S1131550CB0ED11C8B2DF60190E202C091938150E9
S11315608111FCCF40C072FF45C0662311F084E0B6
S113157001C083E08B1510F4B81A01C0B12CE4FC4F
S11315800BC08B2DF60190E202C091938150811122
S1131590FCCFCB0CD11CB12C662319F0F60161935E
S11315A06F01E2FE0EC089E4D6018C938EE411969D
S11315B08C93119786E412968C93B3E0CB0ED11CD6
S11315C00AC089E6F60180838EE6818386E68283FB
S11315D0F3E0CF0ED11C8B2DF60190E202C0919363
S11315E081508111FCCFF601EB0DF11D10822EEF1D
S11315F03FEFACC0A1E0611101C0A0E04A2F50E070
S11316001816190624F49C012F5F3F4F02C021E0F5
S113161030E0240F351F112329F0412F50E04F5F94
S11316205F4F02C040E050E0420F531F2B2D30E0CB
S11316304217530714F4B41A01C0B12C3E2D307173
S1131640E4FC0DC0E3FC0BC02B2DF60140E202C00C
S1131650419321502111FCCFCB0CD11CB12CAA23D6
S113166019F0D6016D936D0131110BC02B2DF601CC
S113167030E302C0319321502111FCCFCB0CD11C9B
S1131680B12CF80E0A8140E1A42EA72274FF03C0F6
S1131690013309F4FA941F142CF42F2D293018F077
S11316A028E001C021E0AC0197FF02C040E050E017
S11316B060E070E03EE2932EFC01E21BF1099F0121
S11316C0DC01A41BB50BFE013196EA0FFB1FA12F11
S11316D0B0E0662477246A1A7B0A4F3F1FEF510754
S11316E019F4D6019D926D018417950754F02417BF
S11316F035073CF47F01E60EF71ED70111961C91C5
S113170001C010E3415051096F5F7F4F46155705E3
S113171024F0D6011D936D01E0CF4817590739F421
S1131720063320F4053319F4A11001C011E3F601C6
S113173011938B2DDF0190E202C09D9381508111A2
S1131740FCCFEB0DF11D108220E030E0C901299699
S11317500FB6F894DEBF0FBECDBFDF91CF911F91BE
S11317600F91FF90EF90DF90CF90BF90AF909F903C
S11317707F906F900895283008F027E03327DA012E
S1131780990F311D87FD916000966105710539F44B
S113179032602E5F3D9330E32A95E1F708959F3F31
S11317A030F080387105610509F03C5F3C5F3D9382
S11317B0913008F08068911DDF93CF931F930F93AE
S11317C0FF92EF92192F987F9695E92F969596950B
S11317D0E90FFF27E255FF4F99273327EE24FF2413
S11317E0A701E70105900894079428F4360FE71E33
S11317F0F81E491F511D660F771F881F991F0694F5
S1131800A1F70590079428F4E70EF81E491F561F08
S1131810C11D770F881F991F661F0694A1F70590B5
S1131820079428F4F80E491F561FC71FD11D880FAF
S1131830991F661F771F0694A1F70590079420F45B
S1131840490F561FC71FD81F990F661F771F881F80
S11318500694A9F784911095177041F0D695C79511
S113186057954795F794E7941A95C1F7E4E5F0E0A6
S113187068941590159135916591959105907FE245
S11318807395E118F10A430B560BC90BD009C0F745
S1131890E10CF11E431F561FC91FD01D7EF4703387
S11318A011F48A95E6CFE894015030F0080F0AF459
S11318B00027021708F4202F2395022F7A3328F0EB
S11318C079E37D932A95E9F710C07D932A9589F6EB
S11318D0069497956795379517951794E118F10A2B
S11318E0430B560BC90BD00998F023957E91739541
S11318F07A3308F070E37C932013B8F77E9170611B
S11319007D9330F0839571E37D9370E32A95E1F73D
S11319101124EF90FF900F911F91CF91DF919927A0
S113192087FD90950895DC01FC01672F7191772361
S1131930E1F7329704C07C916D9370836291AE1786
S1131940BF07C8F30895DC01CB01FC01E199FECF88
S113195006C0FFBBEEBBE09A31960DB20D9241502A
S11319605040B8F70895262FE199FECF9FBB8EBB58
S1131970E09A01970DB2021631F02DBB0FB6F89420
S10F1980E29AE19A0FBE0895F894FFCF9C
S113198CE8E8F0F0E2C1C2C2C2C2C1C2C2C2C3C161
S113199CC2C2C2C4C1C2C2C2C5C1C2C2C2C6E8E8C4
S11319ACF0F0E2E8E8F0F0E2C1C2C2C2C2C1C2C2C5
S11319BCC2C3C1C2C2C2C4C1C2C2C2C5C1C2C2C2F4
S11319CCC6696E666F0D0A005354415455533A2040
S11319DC253032580D0A00434F4E4649473A2025CC
S11319EC3032580D0A0052465F43483A20253032B3
S11319FC580D0A0052465F53455455503A20253031
S1131A0C32580D0A00454E5F41413A202530325878
S1131A1C0D0A00454E5F5258414444523A20253039
S1131A2C32580D0A004F4253455256455F54583AAA
S1131A3C20253032580D0A00506970652030005052
S1131A4C69706520310050697065203200506970EE
S1131A5C652033005069706520340050697065202E
S1051A6C35003F
S9030000FC
